:100000000C94CF130C9450260C9429260C94F713BF
:100010000C94F7130C94F7130C94F7130C94F71338
:100020000C94F7130C94F7130C94F7130C94F71328
:100030000C94F7130C94F7130C94F7130C94F71318
:100040000C94DF250C94F7130C94AD250C948725A4
:100050000C94F7130C94F7130C94F7130C94F713F8
:100060000C9477260C94F7130000000000000000A9
:100070000000000000000000000000FCFC00000088
:10008000000000333300000000FCFC0000FCFC001A
:10009000000000000000000030FCFC3030FCFC30B0
:1000A000030F0F03030F0F030078FCCFCFCC8C009E
:1000B000000C0C3C3C0F0700001C1CC0F03C0C006A
:1000C000000C0F03000E0E0000CEFFF33F0E0000E9
:1000D0001F3F30331F3F3300000000FCFC000000D6
:1000E0000000000000000000000000F0F81C040008
:1000F0000000000F1F38200000041CF8F000000072
:100100000020381F0F000000C0CCFCF0F0FCCCC079
:10011000000C0F03030F0C0000C0C0F8F8C0C000B3
:1001200000000007070000000000000000000000C1
:100130000000C07C3C00000000C0C0C0C0C0C000C7
:1001400000000000000000000000000000000000AF
:100150000000003C3C00000000000080E07C1C002F
:1001600000383E070100000000F8FC0C8CFCF80091
:10017000001F3F31303F1F00000030FCFC0000003A
:100180000030303F3F30300000383C0CCCFC3800B1
:1001900000303C3F33303000000C0CCCFC3C0C00F9
:1001A000001C3C30333F1C000000C0F0FCFC000091
:1001B000000F0F0C3F3F0C0000FCFCCCCCCC8C00A3
:1001C00000183830303F1F0000F0F89C8C8C000085
:1001D000001F3F31313F1F00000C0C0CCCFC3C00D9
:1001E00000003C3F030000000038FCCCCCFC380091
:1001F000001F3F30303F1F000078FCCCCCFCF800E3
:1002000000003030381F0F00000000F0F000000048
:100210000000003C3C000000000000F0F000000086
:100220000000C07C3C00000080C0E070381808006E
:10023000000103070E0C0800003030303030300071
:10024000000303030303030008183870E0C08000B4
:10025000080C0E070301000000383C0CCCFC3800F1
:100260000000003737000000F0F81CCC4C98F0007C
:100270000F1F38333233190000F0F81C1CF8F0005F
:10028000003F3F03033F3F0000FCFCCCCCFC780068
:10029000003F3F30303F1F0000F8FC0C0C3C3800A2
:1002A000001F3F30303C1C0000FCFC0C1CF8F00030
:1002B000003F3F30381F0F0000FCFCCCCCCC0C00C2
:1002C000003F3F303030300000FCFCCCCCCC0C0088
:1002D000003F3F000000000000F8FC0CCCCCCC003C
:1002E000001F3F30303F1F0000FCFCC0C0FCFC0082
:1002F000003F3F00003F3F00000C0CFCFC0C0C00DA
:100300000030303F3F3030000000000000FCFC00B7
:10031000001C3C30303F1F00FCFCC0F03C0C0000D7
:100320003F3F00030F3C300000FCFC0000000000D9
:10033000003F3F3030303000FCFC70C070FCFC00EF
:100340003F3F0001003F3F0000FCFCE080FCFC0060
:10035000003F3F01073F3F0000F8FC0C0CFCF80099
:10036000001F3F30303F1F0000FCFC0C0CFCF8006D
:10037000003F3F030303010000F8FC0C0CFCF800F5
:10038000001F3F3018372F00FCFC8C8CFCF800005D
:100390003F3F01030F3C30000078FCCC8C0C0C007C
:1003A00000303031333F1E00000C0CFCFC0C0C0004
:1003B0000000003F3F00000000FCFC0000FCFC00CF
:1003C000001F3F30303F1F0000FCFC0000FCFC0021
:1003D00000030F3C3C0F0300FCFC008000FCFC0011
:1003E0003F1F0E070E1F3F00001C7CE0E07C1C003E
:1003F00000383E07073E3800003CFCC0C0FC3C0013
:100400000000003F3F000000000C0CCCFC3C0C0046
:10041000003C3F3330303000000000FCFC0C0C008E
:100420000000003F3F303000001C7CE080000000F6
:1004300000000001073E3800000C0CFCFC0000002E
:100440000030303F3F00000080E0781E78E0800000
:100450000101000000010100000000000000000098
:10046000303030303030300000070E1C3870000063
:1004700000000000000000000000606060E0C000BC
:10048000001E3F33333F3F0000FCFC6060E0C000D3
:10049000003F3F30303F1F0000C0E0606060000060
:1004A000001F3F303030300000C0E06060FCFC00D6
:1004B000001F3F30303F3F0000C0E06060E0C00000
:1004C000001F3F323233330000C0C0F8FCCCCC00F8
:1004D0000000003F3F00000000C0E06060E0E0007E
:1004E00000CFDFD8D8FF7F0000FCFC6060E0C000D8
:1004F000003F3F00003F3F00000060ECEC000000C8
:100500000000303F3F30000000000000ECEC000035
:1005100000C0C0C0FF7F0000FCFC80C0E0600000A5
:100520003F3F03071E38300000000CFCFC000000B9
:100530000000303F3F300000C0E0E0C0E0E0C0001D
:100540003F3F0007003F3F0000C0E06060E0C000A8
:10055000003F3F00003F3F0000C0E06060E0C0009F
:10056000001F3F30303F1F0000E0E06060E0C0004F
:1005700000FFFF30303F1F0000C0E06060E0E0009F
:10058000001F3F3030FFFF0000E0E06060E0C0008F
:10059000003F3F000000000000C0E06060606000BD
:1005A00000313333363E1C00006060F8F8606000B4
:1005B0000000001F3F30300000E0E00000E0E000FD
:1005C000001F3F30303F3F0000E0E00000E0E0006F
:1005D00000030F3C3C0F0300E0E0008000E0E0007F
:1005E0003F1F0E070E1F3F000060E08080E06000AC
:1005F00000303D0F0F3D300000E0E00000E0E00083
:1006000000CFDFD8D8FF7F0000606060E0E06000CE
:1006100000303C3F333030008080C0FC7E0202005E
:100620000101033F7E404000000000FEFE0000008C
:100630000000007F7F00000002027EFCC08080007E
:1006400040407E3F03010100C060E0C08080E000C8
:100650000100000101010000000000000000000096
:10066000002F000000000700070000147F147F1413
:1006700000242A7F2A120062640813230036495599
:10068000225000000503000000001C224100000071
:1006900041221C000014083E08140008083E080807
:1006A000000000A060000008080808080000606062
:1006B0000000002010080402003E5149453E0000A1
:1006C000427F4000004261514946002141454B3183
:1006D000001814127F10002745454539003C4A494F
:1006E00049300001710905030036494949360006C1
:1006F0004949291E00003636000000005636000029
:1007000000081422410000141414141400004122A3
:10071000140800020151090600324959513E007C7B
:100720001211127C007F49494936003E4141412265
:10073000007F4141221C007F49494941007F09094E
:100740000901003E4149497A007F0808087F0000FE
:10075000417F4100002040413F01007F08142241B9
:10076000007F40404040007F020C027F007F040871
:10077000107F003E4141413E007F09090906003ECD
:100780004151215E007F09192946004649494931F6
:100790000001017F0101003F4040403F001F204019
:1007A000201F003F4038403F0063140814630007D7
:1007B0000870080700615149454300007F4141002E
:1007C000000204081020000041417F0000040201E3
:1007D00002040040404040400000010204000020AC
:1007E00054545478007F48444438003844444420EA
:1007F00000384444487F00385454541800087E0997
:1008000001020018A4A4A47C007F0804047800005E
:10081000447D4000004080847D00007F102844001B
:100820000000417F4000007C04180478007C08042C
:10083000047800384444443800FC24242418001868
:10084000242418FC007C0804040800485454542054
:1008500000043F444020003C4040207C001C2040DD
:10086000201C003C4030403C004428102844001C20
:10087000A0A0A07C004464544C44000836414100D0
:100880000000007F00000000414136080008040815
:100890001008000080007301760178017A017C0164
:1008A0007F0181018401860188018A018C018E010A
:1008B000900192019401510268028A029502F502A8
:1008C000650368039303AE03B103B403D903E203E2
:1008D000E703EA03EC03EF03F203F503F703FB037B
:1008E000FE03100427042D043204340436043904B2
:1008F0003C0440044304450449044B044E045004A2
:100900000003740BD484606FAE6CF9BB84A265B134
:100910004BF672011A21E85AD8D604735E2C226E67
:10092000C4E9B58B819A1EE487C99E7B17526DADD1
:10093000E3E58B04A72E996A32AA9997CCA65B159A
:100940007956480163B1DF5427065706538CA62712
:10095000AA66890318517EFB67D3CEDD3FFD3D1F9C
:10096000478401F3856EF83B792B0C904B67467DED
:100970005488FDD612E5E748F20EDB994D71A5408B
:1009800068D9C95939E475201CE9B1F5013C19BB96
:1009900060F7FA6B1E689F19B6ED140F56BCC13490
:1009A000CB009D43D40FF3629C9DF78B9D533A8DF2
:1009B0002F3DDE3D3831039BC7C159E9D175888D84
:1009C000365886704E5B9ED0DBCBF7EA1FDBA53B2B
:1009D000B3BD6BBCF37065D5170F64152420D5B873
:1009E0007B0D272985881F5822574F09C04DD6E413
:1009F000C6B53A373327BB6A1469031BEDA8C34356
:100A0000E8EADE410625C5C83CBF32B2A7DD22C2F6
:100A1000E9CA84F2C0267C7801F7D5C60533E4C262
:100A200078EC1BFDD2507D11295799B0F1556674B1
:100A3000B45823A06F2ED89B08B33E53CF5ECC7A18
:100A4000DF4EED42166A9188431B1D845C5221667D
:100A500058243671C56A0D2C869A239DE03543C90A
:100A60007F41BD8299ED7A26B2D3A6CE4F00E687AC
:100A7000E3D7682886F7CED2B3D31B0402B978B384
:100A8000ADE03C53A68A4A22BE1FCEB176F22F813A
:100A9000A8C17872B0156519E332A74D0CD300B91F
:100AA000C327BE744DD1E10C36DD23FBA722D3440E
:100AB000CAB3081BB40D4BDF1AA69032925C1AA77A
:100AC000CD852E351172F821357D3FDB298D30B370
:100AD0004F451477CF992FA39081B0AEE845E63A01
:100AE000A9A262B7DBBE2539A5FCEAC5BC3AEC90E9
:100AF000AEA6FB12AAC76222AFA984B964B8FB8D67
:100B0000C11CC3D0876D5CB4FE3FA4B8D889F40182
:100B100059BB04A543441ACB4130F75B9AEE28F445
:100B20004C7199CA4B7F2A13F04B54B3FC90EDBE25
:100B3000483FF15E0DA1BB1E591615F04B504C9667
:100B4000861BA9CCC2694E1003F0E953E5E2BB4510
:100B5000E28DAE407108864D08F49690585340A53A
:100B60008B5B3CAD47B5D7E26A1378D4DCC9EC0E99
:100B700093F0C01D953676A45385C9ACE4718DAF52
:100B80006861209DFF45356E04D82732C3DAEEA296
:100B90006604B72106527F398FFDEE9074B64FB6CA
:100BA000240E1248F0B230F2A54C9152E3C6487BB5
:100BB0003896239ED71B95153AC98B6F637D1DC947
:100BC000EA96E601D785C0EA3DCAD3B7FB07543A97
:100BD00000313D74E4125BA238335BBF1DDC4EE88C
:100BE000851077ABEA6579B0AA3061C6F63BCC9543
:100BF000FC837F8C7BB55205EBF721DE89B66DEE69
:100C0000317713AA935596086E1C82B57E95B994D8
:100C1000DD68425C3A00C37B6F606A2C07D76C8248
:100C2000FBB2812569D6720AD2E8500588491B6358
:100C300072996CE37AAEB01B9ED42554258A901726
:100C400097DF39B87CEAF082DD25D2ADE7F63623AE
:100C500084A9C96A53F4822C1DEA06C64F70543722
:100C6000802A6B63DBCC86E68C7F278C7254739E64
:100C70001BD64CFA058280D7B711980000000000FF
:100C800000069869151CFC868774845BD40FDBD73B
:100C900027C54AB28F297A4A230AB807D03470810F
:100CA0008E53EF43163FA8A79E5A77C091B7891578
:100CB0005248C0B762ABE1746410AA096B97742103
:100CC0007935A19725FC78C1EC6E877740871A7437
:100CD000828156DDEC37ADAF0331AC478574C02A55
:100CE000459DF4120CF986B04A16D8116C46C44AD8
:100CF00067988B1B42C2BEBB0E4884F708A6C38F01
:100D00008E8DABC29B5D5C6028578F0EAD2EC15E91
:100D100095299AF48A27D441BB4AAC5DB29326FD4B
:100D200087813F2735A6422C1538ADF8026F94DA3B
:100D300008EE19D890FA89C3AD89FEC60246811D16
:100D40000C8D782FEED3ED6C7B95495687F4E263DA
:100D5000DA39CE681618ED98EE86F3B3C1121A513F
:100D60009B571D199E987ED2FD3D2B5915467457F1
:100D70007914817189D922DD9210D98991DF6700B8
:100D80006E53AFDAB528301E47E6B7052D22CF7F68
:100D90006ACD88906B8C16368807A1B7AFF331C443
:100DA000DB768B969EF017A73F847891A8CD3F8F76
:100DB000A5DD5214F9395D0B568E1C5A5B89EE8005
:100DC0009E33BDB145154234597820FC2DDBC92E28
:100DD0000F3526CF239B3E1D9F0F260EB7B54EAC79
:100DE000A286D5DA36045A73466A88C52AA083E8F3
:100DF0008B5F3CAF6A444E759B8F93373538BD028D
:100E00009A1D8429642597E07C2AB6CBC166513CA3
:100E1000BC3BF3552BB7BD81ECF349D5F803E0BDDE
:100E2000C60CEEC01908FB4F8C94080EA53037F0A5
:100E3000B818937300BB5252B4980D4B45B9890A48
:100E400034E91C245A8FA89DC2D927A9EEBFC080BF
:100E500090BC2A9343FB0AB396D1AE13410168B903
:100E60002C53537C00A58441D6988898FEDEF7E287
:100E70003743620E9383EE030A8DCA8759366F613A
:100E8000F7F4D6AB8B0F9C8396A46C4643806BEA39
:100E900050DCD8CED4F4AE5BC6014385718D0C39DD
:100EA0005EE43B2BC488B2C554960E879A5093D605
:100EB0009C91CA09648B23C429441A67E1DAC71BD1
:100EC0002517022C8F2A133ACFD665312B10F5B592
:100ED00096DF01997BADD6B4C035A348E3B09EFE42
:100EE00033101A09AE3C0AA1728F0051E17823F544
:100EF000E2BFA64628B34B24B1A1DEB1C4486FEDD2
:100F00005AD461F0DBE1085C64C0CAE9A9DEDEEC1A
:100F1000C0685B6DBD43828CCA69B1A9C8710D5DA3
:100F20006DA5AB1A6794EE0593E33FE81AE60F7FD1
:100F300079F2CBC53757DFFC4FB460C7973C61B03F
:100F40000C4664F44392D2A5F0F3B7DFAB20B1F5C1
:100F5000302AB3DC4B39B7853E1E1B948C26288083
:100F600045D60136D0EC934688D3D5895D7A822167
:100F70003EC240E3B4DEF5A569D569495C89CDAED2
:100F8000137070ED690CECC6FE75EB4ED6B3C860FD
:100F9000FB341EF86492D929A813383D79C4BF21C7
:100FA000379DE34F21E53F2C5C5F41FF148791E0C3
:100FB00082040B1E5553DC5640A43578E29B49222F
:100FC0002E09CD1F6F9483EEEA8BC4C210E080D946
:100FD000A55F53349C8CEA95648794D6321CEB93BE
:100FE000BFE35583C2F6FCC885B2945C425F6B8E4A
:100FF0003B9779747EE35CC2631A22B17F94CBE79E
:10100000B7FF0E3795AF105317881272DDCBAB4B7D
:101010006B6824ACC95C72094FF1FB1DE7A230E993
:10102000204BDA707C9EE234EB6A35C233D79D07E1
:10103000B1EFF675F5FDADC74BD0B7DDAE1E8D1E19
:10104000C0399CA71CC5CC3950C66BC6DA37C7E17E
:1010500020EB74A53DC008FAC2DFF29E432BF07767
:1010600050498CC32F68F32A9B831ADC05D8B77CC0
:101070003C611176EC2DFE86088715A3C01CB46A6E
:101080008D9EBF9AD5C85B05181015FBC63CEEC5F2
:10109000524B313607B94C81EA83D782FEFC435963
:1010A0004E20BDD365CF1F5C711FBF26EC44EB0102
:1010B00074823C8E60DF479031177E16C0EC1EC3F1
:1010C0003A7A5921A29B8E8725D3FE85DD6DE6D81D
:1010D000CA74BADB4230963D8622866FDE371A9399
:1010E0002F032EE16E1662C1E12DFECBA8DF640551
:1010F000EF23BC71617B1B602227BDC6A37207AAC8
:1011000009B052F219154DBEAF263B4D62A63C41C7
:10111000077A34253CD6CDB65547871ECBCFCED2E5
:101120000D95C0D872A6E0332426517E71C7533F77
:10113000D4677352CB785A001115715F8D3CCF4044
:10114000CDD97430D9A13FC658BCBE7818319A3970
:1011500060BB8D7B3495A5F1543BB98599AFC445EF
:10116000EB64A76E5960EB1E7AFBFD924323F127D7
:10117000AC661266288A5CF6C63F7604E80927ED5D
:1011800005AA26E5B4AD40BAF7F484CB7F07108DED
:10119000B6C7D477EABA962A98F056D7FF504D5979
:1011A000793D41E0FAA99D3EA6D979C80DD156C531
:1011B000ADD7FB703CBDF3E95D1C5393331DF81BA9
:1011C000EE9FB750AC8F485961C9859EC8B0D274A4
:1011D00039DF33F528E06311A7C405BD3AD934CA15
:1011E000F9AAE200E6E638573EEC197C0D2745C522
:1011F00052C4FFF469C5F573734FE307C7CF3823B3
:101200005B9C99A26A72B03539C10AC71C1A30605A
:10121000181D2BF0C8F179A394E336359369059135
:1012200007126044FDB6C6FFE0CFA2CFC2A358AC00
:1012300032E32EEC0D9D1BFB0540BA678ECB38D7F1
:10124000609CFE9EA170CC40728C8C507185DD84B8
:10125000925CEE44B6E0801532DD1B4B8C6E8E390D
:1012600097A5AFC6F42985D3859385C854E4591D45
:101270004EA0FEC507C1F73252F94D4585FCA0FAD4
:1012800037B59D47E852238D928743B4B84F951BDD
:101290001E4FE545BFCEC80CB27DE7D92E88B72AD0
:1012A00061E12DC4212EB84DFD2187302511EC1FA1
:1012B000299431D292853817DA634D8CB40655647F
:1012C000B76CFCC28D5D978609D34369E83577CC4E
:1012D000AF91363C7CA36E4E4AA2C94150EAABDFC7
:1012E0008704704F16F5A038F56016CD0CE5C7E3FE
:1012F000AD00126B12853C5C7F76ED49F29D8FDF6D
:10130000ABE1DD8701ED2C1B4B55117FC392D391CF
:10131000C1D8A737C7E55B482BED31DECEFB950082
:101320000000000000000008E35184000B4D26730C
:10133000118B1EE20000000000000000040473E0B6
:1013400072FFE659C900000000000448BFABF399E2
:10135000877C07000000000004FB33B16361611269
:10136000AD000000000008AA30AC174D3086BF6702
:1013700013F1A70000000000000000041B484223F6
:1013800084BB7FB4000000000008A69F43785CA1E6
:101390004E8BA6E67C49000000000000000001F72B
:1013A000315D27300000000000000000010B570BEA
:1013B00079F70000000000000000024433BBB45B7A
:1013C000C70000000000000001ABE301C2D2000032
:1013D000000000000000017A079EAD8400000000BC
:1013E0000000000002F1EEF7D829500000000000D4
:1013F0000000012C35543ACC000000000000000031
:1014000001C93D666A980000000000000005247ACA
:10141000F71C2440EBA24DC266C8372C030FF30122
:10142000066D9A42F0948FEDBFE3283B72693775E1
:10143000B4A09A6E31FD665BCBF3BA8CA431FFBACF
:101440007C2454D3C6638993E4EDDA58474EB58FB4
:10145000D793FDAF31EAB4ECC9057D2B1596C100D9
:101460007E80E6F747CD6A77F10E5913AA5C838830
:1014700070DCC4525220B6692D6C6C8B662ACD5A32
:101480004130D6FB7BA0EC7A22887C716EAF62067D
:10149000F4A8C688857636C5C0D867967CE84DD452
:1014A000FBA96F0FB2A7A3196A30FD6FFC2BCEA466
:1014B0001B8E574851C6980FE5087B4DFC59DDCF70
:1014C000131B310C5E3B98E1F4C341D7A2645E1656
:1014D000F9EBAE20E95D54BD99D3A7C1D9E532221D
:1014E000D69F4FDD6B3C6DE94D965211DA2386BED7
:1014F00001C451C29CC6F52F1FD0F1F55782FECB17
:10150000FB4ADF1D0046B8A73A566608714E47F8F9
:1015100027265F6CD8C305990A758F4FC18872A0C2
:101520005A1308A382842ECEB5A34605D66A7856F0
:10153000442386F2C963088BBDEE56D4361F375359
:1015400018E7DA1CFAD005D55FE7B7AD362BCB0626
:10155000C053F432A8756FE3C9A1B0A6E6C2410F2B
:101560005D2E0A64504692495B2D002EB5213F0B3B
:101570004A719688844C98AA2823EBEF455C6278E0
:10158000D6E4FB6DC3D9356CB92AC67471C40C6539
:101590007CA3F96E2DB986B0046394CF267D9E1E80
:1015A000F799DAE08CDD86F3C8F1C64E155DED34AF
:1015B000BB90CDD626091EF6238451C1AE428F843E
:1015C00096C957AE16363A298765B2BA5696D2F5FD
:1015D00009EF304A0F6236FE0030BD091B50C33C94
:1015E00048D725E18EB26F4D752DADC61EBAFA4FA4
:1015F00041AF7A6FA0A04FB68834698A9E837A6023
:10160000F3A87E392A209C325E7DC4AA97E626354F
:1016100042A1A0EF39B31C2763D27F75C01EB4FA74
:101620004D7A818139E0792F94A5283A437E97B588
:1016300094AF2A10380A7F4991C06C659AC6C95D7B
:10164000D552469874AC93E421B0EB08FAF4412EDD
:10165000A6F9C5EDE33798C5DF528241A2F2561ACA
:10166000F3A4C6408DB95FAA751E151E68782B2B92
:10167000F43EC7CBF31360E0F48579880C227587BC
:10168000B751E0D6E3A092D3D7E36C5B3EB780E7D7
:1016900048D6D92F49CC75A004C94888E9CC324135
:1016A000AF30DEC6BC9DF7FCFF69035058A1D6B829
:1016B0007B5E60FCCC0014AF3A3041B34E6347957B
:1016C000E4BD5374D0F002B4FE48196C3F23F79B7D
:1016D0004411F2C245A637776C10630E1BA7D19652
:1016E000CA0D4F5B4351D614B723E799A49F4C7D95
:1016F000D7DD0811844D5CE96090048B1490F06F85
:1017000026450F208CE36F4678EB12B45EF0DEEBDB
:10171000222762784293BCE848C088BD0FDE232BA5
:10172000D1880AE2B4338E6136435842AE6BD7F2A9
:10173000FE0AC126947ACE8C3B435A62EF708AFE31
:101740004DD237DBA1B1061B30174CA0241EBECBF7
:1017500064E2CE135CD705A6763938F3852C160ED5
:10176000B3E23DFF79880B93EFAD55CDB4EF8FB861
:10177000167A05C05E920F4F9858D422AD4325319A
:101780007852C69ACA5EA64E79979ABBDF6DF1E28F
:10179000D0B3CA2A5C46825C1EDDD0C519892B2CC9
:1017A000BDC084D9333967E4E47926B69D1C1DE4B5
:1017B00070A5A76189254A57337D0DCAF3CC22AAAB
:1017C000D7D9CBE6B29646159568D80FDF6B36DAD7
:1017D000198216CE384ECFF236C880075388042FB0
:1017E000B214195DC56CEF959C608B6AE4FC9DB2E8
:1017F0009CED1D9C1BCAA326DD9C635B3B882BBA1A
:101800002235240148EEA04F6E964E2991AAAF567C
:1018100047BD7BDDA15599D8B5A147937BCD7BCF43
:1018200065DE5018F20549F199D894213F7D52C6E2
:10183000B1B4E19FF07E60648B30E4AD2C97FB4740
:10184000F70901047BF4F7A7A804A57F0858796D70
:1018500026276AD0D9AFC1C71223E1AE98A40FBC26
:101860001BFA9D910B1515A524531A13E0C300957F
:10187000389C364CCFF6A9BCC1530604F46FBF5751
:10188000E0A614A649707F392A4A5A593633B90D51
:101890004725393704777C45AC19932549E07A7B95
:1018A000A2C695768D3C79B1A7C38363032347D73E
:1018B000ACFB84166F22490B97AAD538575E2BBB19
:1018C000A749EDD2D57A96BE8DF5F94656F52FA7E4
:1018D000A87AFF3FE7E88CF148E846CB4D25F9357B
:1018E000932FCE8BB8A9C5D3D22771866F72D9CA70
:1018F0004E90D36DB13CD3CBC9303A26459D66445A
:101900005C5FD8E3907C1BD882DDD384D4C61B589F
:10191000BF02A53B100A3EE309940B99882B47A709
:101920009089C4482536DB7231ACF5A30115D0E6A9
:101930002161EB5972DC94000098F7B0F9FAC10A02
:101940007EDC69CE905E82110B97E29955A23DFA3A
:10195000EB88BC4DC2548D5FDEA3E248132046C520
:10196000A08104C42B9A8415B89E9B62A1EC7D08CB
:101970003CAD214B89FCC6967C3A41358A13BD1B90
:1019800043BF367A4ECE709E2AF63933C7334B3476
:101990007D2A81FA252EC5C4A1280ED54D15E069F2
:1019A000127119AAFF5948815653C935124D8469DD
:1019B0009136D8ADF754D58CF9C684126222F1B9AC
:1019C0002B1DA57C567A4D5AC4F09D8F5DB59A7F2C
:1019D000E7B7A85D6D3700000000E4F2EA7A73F81B
:1019E000FC6717F3D960090E8B0FE2F98361DF53AF
:1019F00069D0EE4251B5514864F8DD3EEEA747F09C
:101A00007C4BBB2B8EE28B6057634B9BAA6763EAD0
:101A1000A3D57C4341A95474D286C3114269C50938
:101A20003E8F94AFC599BBBBAC61646101F2D359E1
:101A3000B1415091166CCC9BEC5CFE3BB3EC6ED785
:101A4000F10E5A8A5F1DB0C576542607BC66F0EDCC
:101A5000519A1FE8F751588E1E80991FEED643CC3D
:101A6000FA2FAE80F2A8A8AE437C8076D41AD47345
:101A70007461DFBF296F561593075892F11DE87BFB
:101A800068B2542030012DC5D8FD6150140F584C58
:101A90001A5400127E46990C9DD1A304F18217FEC0
:101AA000FC12E57581AFFF3D08D539874A8EF07A83
:101AB000D4D0D6CFA9D6594841C268E3A435458DC4
:101AC000141AC4000000000044892C63C8AF7BAC2A
:101AD000354327BE7ECF56403DA5AC0F97CCD46E84
:101AE000D031D7146045AEDF0AAA33B388E01C2694
:101AF000DC00B875C86711A1B58771F94A6AEC3F77
:101B00000E4121C24F928F1753EED5EA4F917502C5
:101B1000590000000294E4DA4AB3AAA72E9CC780B9
:101B2000465EBD06331DD85D9F5F77730A7D386BB7
:101B3000A70E8F4E7D01DA4474D2F17A2F7FE1EC4B
:101B4000F1A57D033B2F17B6E80D333C2191915B46
:101B5000302C11C6586AE4351BB5A847B3FFD096A0
:101B60000E484E9737601204FFCBA5F51D409CDF51
:101B700036123DD92A72DAE88BE45BCFE93852ECB1
:101B80002CA0F779AD2070592062739CE34609C9F7
:101B900012D47755074B6A261E5D0778104E4ADA35
:101BA0005EF63B9B8DFD48D0BBAA212EF5DF854C10
:101BB000A71D1A261BA082867F4B02D2F660C9861B
:101BC0000C1DBF736986184B44BC74E5821793B52E
:101BD0000A5608B74A73B804D214215E2CA0E0C29A
:101BE000015FDECE642AD8652BF074E354BFA09B5E
:101BF00050BA02002C95CE2A4FCF2B2B0E9BDD8F97
:101C0000675B54A1472E842E24FA34E05A103BCF50
:101C1000AFE2ED28D1176B9A1B496CFCCB7A7409A3
:101C20002A415AFFA1F598C60CD26983D2C36987AD
:101C30005E7EBBFCC0D1C117D79BE15370B743D0C8
:101C400038252649405B57BA4932AA9F39AA8E7374
:101C5000008513796DF1912F9EA3A0657C7D53B40F
:101C60007053016B925F38F1D73D7AD607727ADBF9
:101C7000A165A50741004BEBC5D03BEB3061420DA0
:101C80004BA3D8078B12F5893D7CFB2E79A7BCD5D9
:101C9000BF729AD81539AD2570D16CB05DBBF43ADE
:101CA000F66056FAF2A528AE0D76B379F14BC72E41
:101CB0006EB6616222D9A730234521DE478CEBE561
:101CC0004C8B4E79A09D95B305AAAFECE67473F0EA
:101CD000DC37AD933B206DA1D8CFF97E9EC6BB40CB
:101CE0006456A6187528D2BA78645C484570358C5D
:101CF000499A454A6DF29C8D480A612EE3D4EEA8BC
:101D000029404B53BB5639CE816CFD37A0791CC797
:101D100094176C37EA97F4D8D49F9F304FE5A40806
:101D2000B86BAEB9BC4F612044DF92DB1E0483C0A8
:101D3000A12C09D8DF21F0200480AF7391BC0EBA2A
:101D4000E4F79B363C30F1B4BADCFA65F22B1D188F
:101D50004E1662D4AC8B21A5A2F132C3C965632DA6
:101D6000316BB88FE12493870499E6BDBA283063BC
:101D7000DAACC799378A8666B344D584AAA15342A0
:101D8000A0381E5DF70529E7CA2A0B6AABCEF03AE8
:101D9000F390E6D125A1331C33997D24D17423FC23
:101DA0006F7DDBA7E9C2DE17122D1CB37E88000011
:101DB000000000000308757D9A4937AF60047CBCC1
:101DC000D31C53703497EBE1CD3079A28694585AE6
:101DD00099C269D7B232626C0A3669B1354841CED0
:101DE00079967A0D2D33BF4D2FB8D8B3FBE471939C
:101DF000B9180D51ABBB09D90DD7671E4728C7F7D6
:101E0000CE605828235E95FC2BDBF90D1FAB49E60D
:101E1000D0A7377920E4CF05E36421ACDFB1E8F93E
:101E2000E04C3B5E89682A48C5640EDBF1538B1A8F
:101E30002FF60C189C529B212E4AE7D6BBB71A0AE4
:101E400022AB4AFDD3027D21FFB90E0F29ABACF4C2
:101E5000445E0FD5F357E54F61724EBA55378F9AEE
:101E60001CD4B830AF0A951A1386D40A835C991B28
:101E70002BC093F513F5EAFB6F75746C2E77C34492
:101E8000C53862B9F5AC58B4966EA4A545B51B7CAF
:101E90009D219516EE29572012BBF80A2325AC5137
:101EA000FD7AE09D43B0276F2ADF0408D3F11D3C83
:101EB000128DAFF2D7B9029D46E3ABFF61C8612B2B
:101EC00019C8C1A16D0AA744FAB5A8D71E53156F4A
:101ED0007A4841E930B5ADE2F070406AF331DD197E
:101EE00050E5BCB43D839FDFC8252790405B32049A
:101EF0004781FA53B40A40157A745BDB24AB3AB7D6
:101F000091E344B747073990D2F5A9084658DC3227
:101F100010A347320445441371AC2EA7C971D0F900
:101F2000517ECAE509A81E775B3A08AA431CD68DE4
:101F30006091466D64569E162ECEB399C8F655270D
:101F40001384BC8AB3C8F51A72F76A0C46952F4AF7
:101F500086B6D29894F1C3370E0C8711567EAFDA4D
:101F600022296FEBFAEC96E0276B42A170091AADBB
:101F70004888DAFCE13B62952856702803B258671E
:101F80008D0AEA9A1595515F83070920BF37AFF78D
:101F90000A743CA552F1E3F55830E117DE98F138A8
:101FA0007BF0AFBD165952996C7470487714FF538B
:101FB0004184BCC5372F71843DF5467C63E000A0A9
:101FC0005607F78C6357BE545CE1FDAC35FAC2D5B9
:101FD000F25ABE7C318EBDDBFE4D036F5EA61F2321
:101FE0002DCA68F0C614CCC33EF021D4402A72B684
:101FF0007EE285D68AFB48512777E4CBCD2FF6E1E8
:10200000BCFEEDA1145FE532FCCFD9FB2FE9AD7D1D
:102010002D68E79A15956A4AE4ABE4EBE00D40BD04
:10202000EF8FB975B439086DC09F04FFCCDE133053
:102030004EB6E4E0CB69E5C61C2F436A632572D532
:10204000DFBDDC0BE9089D3D266FC389F818AC4263
:10205000BF4E9D5D28B0264136768D8684FAD8D451
:1020600067581969202D35FE09D98CFDF921A15732
:10207000DF17AE8ECBC97F2654DE104372DDBC184D
:10208000B934F9AB70F9744D8E6D2A331406D071E2
:10209000E6ADAABE862E9A8D8788AF039FCBF878CF
:1020A0009A663809CDAE89C2CCAF6A16140948AE1B
:1020B0009B55E40FA586A1757F7CEF0DCB3AB30D40
:1020C0001F020000000C801FB4F4E0A641CC870082
:1020D000406143E7FCB40000000124CA4534253CBC
:1020E00039FF098C39855A5BCC273CBD284386458E
:1020F000179A4E3524A423A2FDCA6CD4FBBAE7413B
:10210000B3FB7C5507B56E3EB12972CC38EA273057
:1021100080B98CB8EE54AB3EDBDD06D095EA3E428A
:10212000886BAE89C7E84C38B693F6BE4C204A8C13
:10213000CE2B22D272494618568070675AFAC0CA0E
:102140006D5321CAE3866891D37CA9D5AD6A72A18B
:10215000FE53E94085EA62A963753A2DEC9BFE586F
:10216000D873205210435C2DB421B9961F726DBAFA
:1021700042EAF285BE5212A7B13E2B89EF0F7305DA
:102180007C99C3C55F9653F8AF9B7A49A0445460CD
:1021900055F0103A608D905065AEF779DB2E08F956
:1021A000BBF2D278D086B594A10EB98189B7F9C0B7
:1021B00043E88F3819DAED2FA75CDB01B338CEE6A0
:1021C000C3F2D5AA879E116FD805F072ABD9A10FC3
:1021D000FF46E94A8C0093E9866F6B1470BEB1B874
:1021E00089C9CC7D1A11D279FBD9D72413948F01D8
:1021F0009C4B69336601829888F84C13310F58C1A3
:1022000006113000000000B48991349B89FC75CD23
:1022100011CA1A6FFA71D645E70FEB3909B35A1391
:102220001FAA3A93CF8D6ECAEC2C8EC5831B5AD64B
:10223000D189AC024FCB0F257696E05D2CFFA7EA43
:10224000EA92F1725BEE08D8848AA959E31277DA30
:10225000D6CA4E362D7CA413D1E818319902540AFF
:10226000D07A74A0AD2C834A6FF1B1501B6469E839
:10227000842F2CC8EB953DA518C74B82FC88E1D371
:102280007B0EBE10BA6502859B469A377A774DC29F
:10229000C45330679154F63D39444342132E092903
:1022A000FD50A6DA94CE8697102B5C1C09CD0FFC4E
:1022B00015DC543B53E17CA7E1FD47C2AF7EEA3415
:1022C000000000000C6FE65C04306C84C751E3B57D
:1022D0005F349EDD05000000000C1CD4BCFBCD3A31
:1022E000AEBC529254852CED0FFB00000000F87339
:1022F000105DD81F06E0A15926B4393FC119F9D4A1
:10230000BE4FF433EC3F3FFE8F91D044F2127890F1
:102310009E79A927EE05CB9F5A4B15DE6739181F0A
:10232000E73A0A4198E7DEA728A0D354663379B587
:102330003A83375F25407047B8796B62963F48EA29
:102340009F6ECB35E16F2DC4C24B9BA74D05790E17
:102350001CFE095A9F87227A131B9F994D05DB1596
:1023600073D865FE395EA4437B6C79BD73914C9B39
:102370004C941887EA68A7449F5C3666FD41145E5A
:10238000B18EEB45DA770EE0EC5EF40DBF41C64846
:10239000F015D860F74076237B1CE559445030CEC9
:1023A000064EC5A670C31817A237ACBF2C6FBC9BD6
:1023B0003F58121110390018DB7D0BD22CEE0AAFFA
:1023C00076947AC15C21D2619F1D7A9695DFA451E3
:1023D00081E61BD57C3644F060FF3AF632EC8FE0A4
:1023E0009AC7E3BCADEBA694714B6D0000000000F2
:1023F0000038974C36A275FFFB3FEB60E131B1BC72
:1024000032776CBD49934BC207BAF067FD68CAF5D5
:10241000A4FF2A5EE2BEB569B2A063931BB4BD46B9
:1024200012FAEE885F46DFB2BAE8BA5447EA000013
:1024300018FA0891779B1C878B01709EC0052BAA08
:10244000D7AF30A8018B28A0F59599325F00000026
:1024500000000008C4EF65453CC36DEFB8349D1C17
:102460000000000000000000046686F2BC9D879713
:10247000BE000000000008DD58DD530F7DEC930B1B
:10248000B95BE30000000000000000087615DFC71C
:10249000682FA8F84D338FAE000000000000000048
:1024A0000884C3E8CB9C718009D711632100000028
:1024B0000000000000040EC6F0509E0AA79900001C
:1024C000000000149A5AF9AA5F06DF5C52374B39B4
:1024D0000C7E18C1ABD636F578BD9F790000000E92
:1024E000F233610EC30B5A24023F42353DA4ADC501
:1024F0003050000076E7E34508661821EBDD1476DE
:10250000F8F155E83B9D8B9392FFA7803438C2AD1C
:102510007CFFBD232B0B2C5FEAC09500FB8C376B37
:102520008A42913EEFD65143216F803EBDF2B324E3
:1025300007A5924A76513172354725E7B9D0F4C2E2
:10254000DD52353A23C416FA2A8D99D0B953C212F6
:102550005C3FCE8DDBD1C8D159E588FF4911ABABCB
:102560007BD1F2B43749A0B1FEFE6C08761D0B009A
:1025700000009AF4B16DA0F220E417A74D85B38E48
:102580007ACB8730AF119020A819EA2207FAC14C04
:10259000E8FCA2038F2AC536E4AF669BBA0ADD6564
:1025A00090DAD72762D9193BABF666892DA5307032
:1025B000E9AAE2D9C12347FD9A254A5F896297615A
:1025C0004B91FC341BFC97B27B87F454FCD6364805
:1025D000C28779A3C48F42B13147DDE8D00A714781
:1025E00022F3F49F287A700CBC5930E0E413246580
:1025F000BD4C0E6D9E4D15901972C928B6950E9260
:10260000F9795C64B9B97BD7DCB4B9B4967F7255FB
:10261000AE00001EB0028E45BDF0A590B73012404E
:10262000B6409CF16263726DF0BA1AF6F0406A47E8
:10263000A2FC9BD87019000000000000001AF524CD
:10264000F64D2F64FDF7C3FDA7455D94318FD69FEE
:102650005D216641D43951AF618C1E9F000000009E
:102660000611E97A8831E126B61C7400000006F5EF
:102670009835171AAB193A8CC60000000E7E14D09C
:102680006E441C666167F18E287230D2BF7D6F0088
:102690000008179962EE7818543AD57F61AC0000B3
:1026A00000000000000010833E2C924F5A9859976A
:1026B000FB8297ADC873A26C0D06CF00000000002E
:1026C00000000A69DAEB9EF7677FDEE8830B465A63
:1026D0003F00000000000002B3607FDCA3FF0000A9
:1026E0000000000000148ECFA26572CE3E11392D7D
:1026F0009494478EC78C706B7C498E3CD74C0000FD
:102700000002C877A5FDBA9A000000000000000A88
:102710001A1BD94A8303DFE2756E28D9631F0000B4
:1027200000000000021827278F4BE7000000000080
:102730000000000000A90200000000240027002A79
:102740000000000000250028002B000000000023EE
:102750000026002900040404040404040402020204
:1027600002020203030303030301020408102040D2
:10277000800102040810200102040810200000005B
:102780000800020100000304070000000000000030
:1027900000C8A1A81FDA028D140096270034112466
:1027A0001FBECFEFD8E0DEBFCDBF28E0AAEFB4E078
:1027B00001C01D92AA31B207E1F714E0A0E0B1E038
:1027C000ECECF0E702C005900D92AA3FB107D9F7F3
:1027D00013E1CEECD3E104C02197FE010E946136E3
:1027E000CD3CD107C9F70E942C290C9459380C9480
:1027F000000091E09093CA058093EC051092CB0500
:102800001092ED050895089508958CE30E94F91340
:1028100081E008950F931F93CF93DF93DC01FB01B9
:10282000EB0125960AE010E0CD01B8010E942B369D
:10283000DB01805D8A93CE17DF07B1F71582442351
:1028400091F0DF01169685E090E050E0841795073F
:1028500034F03E9111963C9311970197F7CF4E0FAC
:102860005F1FDA012C938081803331F480E2808312
:102870009181903309F48183DF91CF911F910F9162
:102880000895DC01ED91FC910190F081E02D099417
:10289000AF92BF92CF92DF92EF92FF920F931F936E
:1028A000CF93DF936C017B018B01040F151FEB01AC
:1028B0005E01AE18BF08C017D10759F06991D60163
:1028C000ED91FC910190F081E02DC6010995892BD5
:1028D00079F7C501DF91CF911F910F91FF90EF9094
:1028E000DF90CF90BF90AF900895FC01538D448D41
:1028F000252F30E0842F90E0821B930B541710F0AB
:10290000CF96089501970895FC01918D828D9817B7
:1029100061F0A28DAE0FBF2FB11D5D968C91928D8F
:102920009F5F9F73928F90E008958FEF9FEF0895C0
:10293000FC01918D828D981731F0828DE80FF11D89
:10294000858D90E008958FEF9FEF0895FC01918DA4
:10295000228D892F90E0805C9F4F821B91098F739D
:102960009927089580EF95E00E94A61421E0892B15
:1029700009F420E0822F089580E090E0892B29F06F
:102980000E94B21481110C9400000895FC01A48DE2
:10299000A80FB92FB11DA35ABF4F2C91848D90E081
:1029A00001968F739927848FA689B7892C93A08964
:1029B000B1898C91837080648C93938D848D9813EE
:1029C00006C00288F389E02D80818F7D8083089581
:1029D000EF92FF920F931F93CF93DF93EC0181E06F
:1029E000888F9B8D8C8D98131AC0E889F989808116
:1029F00085FF15C09FB7F894EE89FF896083E88949
:102A0000F98980818370806480839FBF81E090E03A
:102A1000DF91CF911F910F91FF90EF900895F62EC7
:102A20000B8D10E00F5F1F4F0F731127E02E8C8D61
:102A30008E110CC00FB607FCFACFE889F9898081A6
:102A400085FFF5CFCE010E94C614F1CFEB8DEC0FC0
:102A5000FD2FF11DE35AFF4FF0829FB7F8940B8FC3
:102A6000EA89FB8980818062CFCFCF93DF93EC012D
:102A7000888D8823B9F0AA89BB89E889F9898C9166
:102A800085FD03C0808186FD0DC00FB607FCF7CF22
:102A90008C9185FFF2CF808185FFEDCFCE010E9422
:102AA000C614E9CFDF91CF910895833081F028F4E7
:102AB000813099F08230A9F008958730A9F08830EC
:102AC000C9F08430B1F4809180008F7D03C0809183
:102AD00080008F7780938000089584B58F7784BDC0
:102AE000089584B58F7DFBCF8091B0008F77809360
:102AF000B00008958091B0008F7DF9CFCF93DF9320
:102B0000282F30E0F901E358F84D8491F901E75995
:102B1000F84DD491F901EB5AF84DC491CC23A1F0B2
:102B200081110E945515EC2FF0E0EE0FFF1FE55BC1
:102B3000F84DA591B491EC91ED2381E090E009F47A
:102B400080E0DF91CF91089580E090E0FACF1F936D
:102B5000CF93DF93282F30E0F901E358F84D8491AB
:102B6000F901E759F84DD491F901EB5AF84DC491A8
:102B7000CC23A9F0162F81110E945515EC2FF0E0FF
:102B8000EE0FFF1FEF5BF84DA591B4918FB7F8944E
:102B9000EC91111108C0D095DE23DC938FBFDF913B
:102BA000CF911F910895DE2BF8CFCF93DF9390E064
:102BB000FC01E759F84D24918B5A984DFC01849102
:102BC0008823C9F090E0880F991FFC01E95CF84D5B
:102BD000A591B491FC01EF5BF84DC591D4916111C1
:102BE0000DC09FB7F8948C91209582238C93888197
:102BF000282328839FBFDF91CF910895623051F43D
:102C00009FB7F8943C91822F809583238C93E88121
:102C10002E2BEFCF8FB7F894EC912E2B2C938FBFE8
:102C2000EACF8E50806480937C0080917A0080642B
:102C300080937A0080917A0086FDFCCF80917800A5
:102C40009091790008953FB7F89480914405909150
:102C50004505A0914605B091470526B5A89B05C03E
:102C60002F3F19F00196A11DB11D3FBFBA2FA92F0B
:102C7000982F8827BC01CD01620F711D811D911D08
:102C800042E0660F771F881F991F4A95D1F7089574
:102C90008F929F92AF92BF92CF92DF92EF92FF926C
:102CA0006B017C010E9423164B015C01C114D1040D
:102CB000E104F104B9F00E942316681979098A0920
:102CC0009B09683E73408105910580F321E0C21A9B
:102CD000D108E108F10888EE880E83E0981EA11C57
:102CE000B11CE4CFFF90EF90DF90CF90BF90AF90FA
:102CF0009F908F900895CF93DF93C3E3D7E061E077
:102D000088810E94D5156AE070E080E090E00E9422
:102D1000481660E088810E94A7156AE070E080E0B4
:102D200090E00E94481661E088810E94A7156AE041
:102D300070E080E090E0DF91CF910C9448162FB7BF
:102D4000F894609140057091410580914205909101
:102D500043052FBF08950895E0919906F0919A06D2
:102D60000994E0919B06F0919C060994E0919D06E0
:102D7000F0919E060994CF93C82F80913E058C2731
:102D80000E94B11681110DC00E94AC160E94B616A9
:102D900080E40E94B11680913E058C27CF910C945F
:102DA000B116CF9108950E94B61680E00C94B1162A
:102DB000CF93DF93C82FD62F0E94D3168D2F877005
:102DC000806B0E94B1168C2F82958F7080610E945B
:102DD000B1168C2F8F700E94B1160E94AC16C09352
:102DE000EF05D093EE05DF91CF9108950F931F93D8
:102DF000CF93DF93C0E010E86C2F80E00E94D816DC
:102E00008091EF05012F081B81F01093EF050E94C0
:102E1000B61680E40E94B116D0E080E00E94BB1696
:102E2000DF5F0D13FACF0E94AC16CF5FC43021F7DD
:102E300060E080E0DF91CF911F910F910C94D81644
:102E40008091EE05860F24E030E0261B31098217C1
:102E5000130609F03CF48093EE056091EE0580E0E6
:102E60000C94D81684E0861BF6CFBF92CF92DF92E7
:102E7000EF92FF920F931F93CF93DF93E09148055A
:102E8000F0914905309749F06D3039F0162FC38124
:102E90006A3079F46C2F0E94201781E090E0DF9176
:102EA000CF911F910F91FF90EF90DF90CF90BF9047
:102EB0000895D2814091EF05ED2EF12C20E830E00D
:102EC0002E193F094217130621F01CF06C2F0E94A7
:102ED0002017E0914805F09149058481212F281B96
:102EE000330BDC9FC0011124289F8001299F100D06
:102EF000389F100D1124BC2E0E94B61680E40E944B
:102F0000B116C801282F201B2D1790F46C013FEF3C
:102F1000C31AD30AE0914805F09149050190F08168
:102F2000E02DE80FF91F84910E94BB16C601EACF7D
:102F30000E0D1F1D0E94AC168091EF05C13039F4B3
:102F40008D0F8093EF05BA94B110D6CFA6CF6091C4
:102F5000EE056F5F91E09B1518F40E94D816F3CF31
:102F60006C1B8D0FFACFCF93C82F0E94D3168C2FD6
:102F70000E94B116CF910C94AC16089520911B05B8
:102F8000260F3327331F21323105ECF42091C4057D
:102F9000FC0190E080E0243069F082E00895A09187
:102FA0001B052191AC0145505B4FA40FB52FB11DFE
:102FB0002C930196861798F380911B05680F6093F8
:102FC0001B0580E0089581E008951092C40581E01A
:102FD0008093C30510929E0561E082E10E94A715CF
:102FE00061E083E10E94A715E9EBF0E080818E7F2C
:102FF000808380818D7F808388E48093B80085E41E
:103000008093BC00089510929D0510929C0510922B
:10301000CB051092ED050E94E51783E094E19093B3
:103020009B0580939A0584E094E1909399058093A1
:1030300098050895CF93DF9391E09093FA04882345
:10304000B9F0C091B800D091BA008091BC008A7BE1
:103050008093BC0060E082E10E94A71560E083E1FC
:103060000E94A7150E94E517D093BA00C093B8003C
:10307000DF91CF910895CF92DF92EF92FF920F935D
:103080001F93CF93DF93D091ED0581E0D13208F00B
:103090009CC0C091EC050E9423166B017C018091BD
:1030A000C40581116CC082E08093C40581E08093E7
:1030B000C3058FEF8093C2051092C105D093C00560
:1030C000ACECB5E0E0EAF5E080E0D8138DC01092FA
:1030D0009F0580919F05CC0FC82BC0939F058091C1
:1030E0009E05813009F084C010929E050E9423162F
:1030F0006B017C0180919F058093BB008091C60588
:103100009091C705A091C805B091C905892B8A2B5C
:103110008B2BA1F00E9423160091C6051091C705C4
:103120002091C8053091C9056C197D098E099F0948
:10313000061717072807390708F442C08091BC001A
:1031400083FDD8CF85EC8093BC000E9423166B01D1
:103150007C018091C405823009F44CC08091C20585
:103160008F3F09F469C08091C205803209F466C0BE
:103170008091C205803309F463C084E026C0809149
:10318000C6059091C705A091C805B091C905892BC6
:103190008A2B8B2B09F483CF0E9423160091C6053E
:1031A0001091C7052091C8053091C9056C197D099A
:1031B0008E099F09061717072807390708F06FCFF0
:1031C0008091C5050E941A1885E01092CB051092D7
:1031D000ED051092CA05DF91CF911F910F91FF90DD
:1031E000EF90DF90CF9008959D9191938F5F6DCF79
:1031F00085EEA9CF8091C6059091C705A091C8051D
:10320000B091C905892B8A2B8B2B09F4A2CF0E9480
:1032100023160091C6051091C7052091C80530916D
:10322000C9056C197D098E099F090617170728071C
:10323000390708F08ECFC4CF80E0C7CF82E0C5CF7A
:1032400083E0C3CF0C943B180895E0919D058091D5
:103250009C05E81730F4F0E0E858FA4F808190E0E0
:1032600008958FEF9FEF089590919D0580919C05A3
:103270002FEF3FEF981748F4E92FF0E0E858FA4FA6
:10328000208130E09F5F90939D05C9010895809152
:103290009C0590919D05891B990B0895CF92DF9213
:1032A000EF92FF920F931F93CF93DF937C01CB019B
:1032B0008A012091CA05222389F0EB016B01C40E1B
:1032C000D51ECC15DD0569F06991D701ED91FC9112
:1032D0000190F081E02DC7010995F3CF642F0E9482
:1032E000BE17C801DF91CF911F910F91FF90EF9012
:1032F000DF90CF900895CF93DF931F92CDB7DEB7C5
:1033000069832091CA052223F9F02091ED0520322E
:1033100058F021E030E0FC013383228390E080E02C
:103320000F90DF91CF9108958091CB05E82FF0E0C9
:10333000E453FA4F998190838F5F8093CB058093FC
:10334000ED0581E090E0ECCF61E0CE0101960E94B6
:10335000BE17F7CF682F8DE896E00E947B1921E019
:10336000892B09F420E0822F0895682F8DE896E0DC
:103370000C947B1990E080E00895809176059091FF
:10338000770521E0892B39F48EE00E947E1521E03B
:10339000892B09F020E0822F08950E949F166093E8
:1033A0000E0870930F0880931008909311081092E4
:1033B0006C0510926B050895CF93DF938091810780
:1033C0000E947E15EC01809180070E947E159091ED
:1033D0007F079F70CC0FDD1FC82B24E0929FC00198
:1033E00011248C5F9D4FC80FD92FD11D88818093E8
:1033F0007F07807341F0803149F481E090E0909341
:10340000770580937605DF91CF9108958FEF9FEF39
:10341000F6CF0E9403180E9405140E9422198823E7
:1034200039F06AE070E080E090E00E944816F3CF47
:1034300008958F929F92AF92BF92CF92DF92EF92B8
:10344000FF921F93CF93DF93D82F162F0E9423163E
:103450006B017C018091C405811166C0C12F81E0A0
:103460008093C4058093C3059FEF9093C20510928B
:10347000C105910F9093C00580939F0580919F0592
:10348000DD0FD82BD0939F0580919E05813009F0E8
:1034900082C010929E050E9423166B017C018091D0
:1034A0009F058093BB008091C6059091C705A091B0
:1034B000C805B091C905892B8A2B8B2BA1F00E94DE
:1034C00023168090C6059090C705A090C805B090BF
:1034D000C9056C197D098E099F0986169706A806ED
:1034E000B90608F442C08091BC0083FDD8CF85ECBA
:1034F0008093BC000E9423166B017C018091C4055F
:10350000813009F44AC08091C105811710F4C0913F
:10351000C105A0EAB5E0E8E7F5E080E08C1751F1DD
:103520009D9191938F5FFACF8091C6059091C705C9
:10353000A091C805B091C905892B8A2B8B2B09F462
:1035400089CF0E9423168090C6059090C705A09051
:10355000C805B090C9056C197D098E099F098616AA
:103560009706A806B90608F075CF8091C5050E9498
:103570001A18C0E010929D05C0939C058C2FDF9116
:10358000CF911F91FF90EF90DF90CF90BF90AF90C1
:103590009F908F90089585EEABCF8091C605909156
:1035A000C705A091C805B091C905892B8A2B8B2B23
:1035B00009F4A4CF0E9423168090C6059090C705F9
:1035C000A090C805B090C9056C197D098E099F09A6
:1035D00086169706A806B90608F090CFC6CFCF93F7
:1035E000DF93CBEAD4E0CE010197F1F761E070E020
:1035F00080912807909129070E94191A8DE896E07A
:103600000E94341987FFEFCFDF91CF9108950F9378
:103610001F93CF93DF93182F092FEB010E94EF1A0E
:10362000809128070E94F91382E190E00E94B51969
:1036300090E080E00E94B519602F8DE896E00E942E
:103640007B19612F8DE896E00E947B196D2F8DE824
:1036500096E00E947B196C2F8DE896E00E947B1902
:103660000E943B1883E998E00197F1F7DF91CF9131
:103670001F910F910895CF93C82F682F70E080E0BD
:1036800090E40E94071BC0937B07CF9108950E948E
:10369000EF1A809128070E94F91382E190E00E94BE
:1036A000B51990E080E00E94B51961E08DE896E0E0
:1036B0000E947B1961E08DE896E00E947B19609181
:1036C00078078DE896E00E947B19609177078DE876
:1036D00096E00E947B190E943B1883E998E00197CD
:1036E000F1F7089580917E0787FD07C061E00E9491
:1036F000A7158BEA94E00197F1F70E94EF1A8091E9
:1037000028070E94F91381E190E00E94B5190E94F8
:103710003B188BE097E20197F1F70895CF939091D2
:103720003407903459F5873048F5C82FCF700E9480
:10373000EF1A809128070E94F91382E190E00E941D
:10374000B51990E080E00E94B51961E38DE896E03C
:103750000E947B1962E08DE896E00E947B1961E08F
:103760008DE896E00E947B196C2F8DE896E00E9410
:103770007B190E943B18CF910C94EF1ACF910895BA
:103780001F93CF93DF93162F90913407D8E4903294
:1037900009F4D8E2C0E080FBC0F90E94EF1A8091E2
:1037A00028070E94F9136D2F8DE896E00E947B197F
:1037B0006C2F8DE896E00E947B19612F8DE896E0D2
:1037C0000E947B190E943B18DF91CF911F910C94AE
:1037D000EF1ACF93DF93D82FC92F0E94EF1AD093FF
:1037E0004707C0934807C0934A07D0934B0790916F
:1037F0007D07992361F0809149079295990F990F60
:10380000907C8370892B81608D7F809349078091A4
:1038100028070E94F913609134078DE896E00E9412
:103820007B19609149078DE896E00E947B196091B1
:103830004A078DE896E00E947B1960914B078DE85E
:1038400096E00E947B1960914C078DE896E00E94FB
:103850007B1980913407803431F460914D078DE8F5
:1038600096E00E947B190E943B180E94EF1AD093A9
:103870003907C0933A0760912A0770912B0790E0AF
:1038800080E0DF91CF910C9448161F93CF93DF9384
:103890000E94EF1A809128070E94F91381E090E0BE
:1038A0000E94B519609179078DE896E00E947B1916
:1038B00060917A078DE896E00E947B190E943B1880
:1038C0000E94EF1A60912C0770912D0790E080E024
:1038D0000E94481680917E0787FD07C060E00E9425
:1038E000A7158BEA94E00197F1F780913F078111CA
:1038F0001EC0C0914207D0914307BE0181E092E013
:103900000E94071BD0934307C093420710914607BC
:10391000C0914407D0914507BE0182E092E00E9429
:10392000071BD0934507C093440710934607DF91C8
:10393000CF911F910895CF93DF93209134072032C8
:1039400049F1EC010E94EF1A809128070E94F913B7
:1039500082E190E00E94B51990E080E00E94B519E4
:1039600061E08DE896E00E947B1960E08DE896E0CA
:103970000E947B196D2F8DE896E00E947B196C2FB9
:103980008DE896E00E947B190E943B1883E998E03D
:103990000197F1F7DF91CF910895FF920F931F9355
:1039A000CF93DF93182F80913407803251F0C8E015
:1039B000D0E002E4803441F0C6E0D0E002E580359A
:1039C00019F0C8E0D0E002E20E94EF1A110F127065
:1039D000809128070E94F913602F8DE896E00E94DD
:1039E0007B19612F8DE896E00E947B190E943B189D
:1039F0000E94EF1ABE0180912807909129070E942A
:103A0000191AF12C0F2D10E00C171D0754F48DE836
:103A100096E00E943419F801EA5AF84F8083F39433
:103A2000F1CF8091560786FDE3CFDF91CF911F91B3
:103A30000F91FF900C94EF1A81E00E94CD1C8091B1
:103A4000590790915807E9E3F7E08083918308953F
:103A50006115710579F0FB0101900020E9F73197BC
:103A6000AF01461B570BDC01ED91FC910280F38105
:103A7000E02D099490E080E008958F929F92AF929C
:103A8000BF92EF92FF920F931F93CF93DF93CDB727
:103A9000DEB7A1970FB6F894DEBF0FBECDBF7C0195
:103AA000FA01CB0119A2223008F42AE08E010F5D41
:103AB0001F4F822E912CB12CA12CBF01A501940186
:103AC0000E943F36F901CA016A30ECF4605DD8010A
:103AD0006E938D01232B242B252B79F7BD01C70174
:103AE0000E94281DA1960FB6F894DEBF0FBECDBF71
:103AF000DF91CF911F910F91FF90EF90BF90AF900A
:103B00009F908F900895695CE2CFCF92DF92EF9201
:103B1000FF920F931F93CF93DF936B01770FEE0804
:103B2000FF08F7FE1BC0EC016DE20E9441148C01FE
:103B300044275527BA014C195D096E097F092AE00F
:103B4000CE010E943D1D800F911FDF91CF911F91EB
:103B50000F91FF90EF90DF90CF9008952AE0B7018A
:103B6000A601DF91CF911F910F91FF90EF90DF9011
:103B7000CF900C943D1D0C94281DCF93DF93809122
:103B8000690590916A05C6EAD2E08830924048F013
:103B9000E0916405F0E0EE0FFF1FEA5DFD4FC0818C
:103BA000D18160E080E00E94D8166BEB72E082E188
:103BB00098E00E94BB1D60E080E00E94D8168091D2
:103BC0007005819580933E05BE0182E198E00E94D8
:103BD000BB1D10923E05DF91CF91089563E08AE30B
:103BE0000E94D8166DEB72E082E198E00E94BB1D46
:103BF00063E08AE30E94D8168091750581958093D1
:103C00003E0560E282E198E00E94411410923E0578
:103C100040917B0750E070E060E02AE082E198E0AC
:103C20000C943D1D62E080E00E94D8166BEA72E0C1
:103C300082E198E00C94BB1D8F929F92AF92BF924D
:103C4000CF92DF92EF92FF920F931F93CF93DF9368
:103C5000CDB7DEB728970FB6F894DEBF0FBECDBF45
:103C600062E080E00E94D81660EC72E082E198E0A9
:103C70000E94BB1D88E08093B8000E94721B0E94C6
:103C8000EF1A809128070E94F91381E090E00E94CA
:103C9000B5198FE190E00E94B51985E090E00E948F
:103CA000B5190E943B187E0129E0E20EF11C0E942A
:103CB000EF1A68E070E080912807909129070E9430
:103CC000191A8E010F5F1F4F8DE896E00E9434197C
:103CD000F80181938F01EE16FF06B1F7898186FD09
:103CE000E6CF8BE097E20197F1F70E94EF1A8091FF
:103CF00028070E94F91381E090E00E94B51981E342
:103D000090E00E94B51985E090E00E94B5190E94EC
:103D10003B1860912C0770912D0790E080E00E9485
:103D2000481662E370E080E090E00E944816D12CD3
:103D3000C12C10E000E05BEAA52E54E0B52E82E92C
:103D400098E0FC0125913491C216D30609F470C0A5
:103D50000296F9E080309F07A1F746E1F42E8091AA
:103D600028070E94F9136F2D8DE896E00E947B19B9
:103D7000F12CE12CC8018050974F4C01F401EE0D5D
:103D8000FF1D64918DE896E00E947B199FEFE91A70
:103D9000F90AE7E0EE16F10489F70E943B18C50125
:103DA0000197F1F7FFEFCF1ADF0A095F1F4F0733C3
:103DB0002EE1120709F0C3CF83EE93E00197F1F7EC
:103DC000809134078032D1F0E09107018E2FEE0F01
:103DD000990BFC01EE0FFF1FE80FF91FEC59FD4F87
:103DE00080818F70806180937707809178078078D9
:103DF00080618068809378070E94471B88E48093E5
:103E0000B80081E08093630528960FB6F894DEBF72
:103E10000FBECDBFDF91CF911F910F91FF90EF901B
:103E2000DF90CF90BF90AF909F908F900C94121E18
:103E300035E1F32E94CF62E080E00E94D81663EB68
:103E400072E082E198E00E94BB1D62E080E00E9487
:103E5000D81665ED72E082E198E00E94BB1D60918A
:103E60006D0570916E0582E198E00E94851D6BEDF5
:103E700072E082E198E00E94BB1D62E08DE50E9445
:103E8000D8166BEB72E082E198E00E94BB1D62E005
:103E90008DE50E94D81680917205819580933E052C
:103EA0006FED72E082E198E00E94BB1D10923E052A
:103EB0004091FD0150E070E060E02AE082E198E08E
:103EC0000C943D1DCF93DF93809164059FEF980F75
:103ED000923090F5E09107018E2FEE0F990BFC01C7
:103EE000EE0FFF1FE80FF91FEC59FD4FC181D28182
:103EF0000E941B1F63E080E00E94D81665EB72E011
:103F000082E198E00E94BB1D63E080E00E94D81629
:103F100080917105819580933E0562EE72E082E1A9
:103F200098E00E94BB1D10923E05BE0182E198E020
:103F3000DF91CF910C94BB1D833079F4E0910601A1
:103F40008E2FEE0F990BFC01EE0FFF1FE80FF91FEC
:103F5000E15BFD4FC181D281CDCFE0914D058E2F28
:103F6000EE0F990BFC01EE0FFF1FE80FF91FE05C4D
:103F7000FD4FF0CF61E080E00E94D8166AEB72E05E
:103F800082E198E00E94BB1D61E080E00E94D816AB
:103F9000809164058823E1F1809173058823A1F065
:103FA0008FEF80933E0567EE72E082E198E00E9419
:103FB000BB1D10923E0560910501062E000C770B8B
:103FC00082E198E00C94851D809174058195809321
:103FD0003E0580914C05811109C06AEE72E082E1D4
:103FE00098E00E94BB1D10923E0508956EEE72E0AF
:103FF00082E198E00E94BB1D10923E0540914A0567
:1040000050E070E060E02AE082E198E00C943D1D11
:10401000089580916F0581112DC061E08DE50E94AA
:10402000D8166AEB72E082E198E00E94BB1D809195
:1040300064058823F9F061E08DE50E94D81680912F
:104040007205819580933E056FED72E082E198E004
:104050000E94BB1D10923E05E0910801F0910901FC
:10406000EE0FFF1FEC5CFD4F6081718182E198E0F3
:104070000C94851D0895FF920F931F93CF93DF93A8
:104080008C01F62EEA0110927505109274051092BB
:1040900072051092710510927005109273050E94BE
:1040A000EE1D0E9409200E94BA1F0E94621F0E94FA
:1040B000BD1D0115110511F0F801F082209711F0D6
:1040C000FE0109950E949F1660930A0870930B08E1
:1040D00080930C0890930D08109265051092660568
:1040E0001092670510926805DF91CF911F910F9193
:1040F000FF9008950F931F93CF93DF93CDB7DEB753
:104100002A970FB6F894DEBF0FBECDBF8091FA019B
:104110009091FB012AE0289FF001299FF00D1124C6
:10412000E65FFE4F9081E0916905F0916A0591117B
:1041300046C02CE243E0BE016F5F7F4FCF010E947B
:104140000A1401EF12E080916F05819580933E057E
:1041500080E292E0909349058093480560E082E216
:104160000E94D81669EB72E082E198E00E94BB1DC4
:1041700060E082E20E94D816BE016F5F7F4F82E14D
:1041800098E00E94BB1D8EE292E0909349058093D7
:10419000480510923E0560E08FE50E94D816B801F0
:1041A00082E198E00E94BB1D2A960FB6F894DEBF0C
:1041B0000FBECDBFDF91CF911F910F9108959D7FCD
:1041C0002EE240E0913009F042E0BE016F5F7F4F88
:1041D000CF010E940A1405EF12E0B5CF90936A0553
:1041E000809369050C947A2042E050E069EF72E018
:1041F00080EF95E00C944814CF93DF93BC0180EFDF
:1042000095E00E94851DEC010E94F4208C0F9D1FFB
:10421000DF91CF910895CF92DF92EF92FF920F93AB
:104220001F93CF93DF93C09164056091620570E0A6
:1042300090E080E00E941434C11130C020E030E0F2
:1042400040EA51E40E947E3520E030E040E85FE340
:104250000E9412350E94F0358B0163E08AE50E94CE
:10426000D81669EB72E082E198E00E94BB1D63E022
:104270008AE50E94D81663E273E082E198E00E942A
:10428000BB1DD0E0C0E0C017D1070CF092C06FE5B5
:1042900082E198E00E9441142196F5CF20E030E0C1
:1042A00040EA52E40E947E3520E030E040E85FE3DF
:1042B0000E9412350E94F0358B01C33071F6809157
:1042C000610562E0882351F080E00E94D8166CEF0F
:1042D00072E082E198E00E94BB1DBFCF80E00E94A7
:1042E000D81661E173E082E198E00E94BB1D8091E5
:1042F00062052FE730E07901E81AF108B70182E1A1
:1043000098E00E94851D69E173E082E198E00E94D7
:10431000BB1DC2E8D7E0D12CC12C88818E151F04AB
:10432000F4F189818E151F04D4F5B60180EF95E074
:104330000E94851D68ED72E080EF95E00E94BB1D34
:10434000488150E070E060E02AE080EF95E00E9454
:104350003D1D68ED72E080EF95E00E94BB1D4E812F
:104360005F816A817B8180EF95E00E9448140E9402
:10437000F42062E08CE50E94D8166AEB72E082E1DC
:1043800098E00E94BB1D62E08CE50E94D8164E8129
:104390005F816A817B8182E198E00E9448148FEFFF
:1043A000C81AD80A289680E1C816D10409F0B5CFFA
:1043B00054CF6CE782E198E00E944114809164053B
:1043C00081111DC060E082E10E94D8166DEB72E0A1
:1043D00082E198E00E94BB1D60E082E10E94D81655
:1043E0008FEF80933E058091510787FF06C065E2FD
:1043F00073E082E198E00E94BB1D10923E05DF91C0
:10440000CF911F910F91FF90EF90DF90CF90089583
:104410000E947A200E94BD1D0E9409200E94621FF6
:104420000E94BA1F0E940B210C94EE1D9F92AF9226
:10443000BF92CF92DF92EF92FF920F931F93CF9391
:10444000DF930E94121EC091FA01D091FB018AE015
:104450008C9FF0018D9FF00D1124E65FFE4F2081AF
:1044600090914907809134074091390750913A075C
:10447000211153C110926405937C909349078034B5
:1044800009F441C110924C07CA010E94E91B8AE05D
:104490008C9FF0018D9FF00D1124E65FFE4FA781E8
:1044A000B085AA0FBB1FAC5CBD4F8D919C9105815F
:1044B0001681C380D480E180F280F0923607E092CA
:1044C0003507D0923807C092370790933C07809306
:1044D0003B070E151F0508F41EC1C016D10608F4CF
:1044E0001AC10E94721B90917C0720913F07309166
:1044F0004107809179074091400740FB87F930FBE5
:1045000086F98F7D20FB84F9807F809379079093D3
:104510007A0780E28093340780914907807C83602A
:104520008093490710924C0781E080934D070E94C9
:10453000451C80917B070E943B1B10927D07809158
:1045400028070E94F91382E190E00E94B51990E0DB
:1045500080E00E94B5198FEF90E00E94B51990E0BD
:1045600080E00E94B51990E080E00E94B51990E0CB
:1045700080E00E94B5190E943B188BE097E20197FA
:10458000F1F710923D0710933A0700933907C801DD
:104590000E94E91BB70180E094E10E94071BB6016D
:1045A00081E094E10E94071B61E070E082E094E109
:1045B0000E94071B1092630510926F050E94EF1A6C
:1045C000809128070E94F91382E190E00E94B519BA
:1045D00090E080E00E94B51965E18DE896E00E94C8
:1045E0007B1962E08DE896E00E947B196AEA8DE80B
:1045F00096E00E947B1961E08DE896E00E947B19AD
:104600000E943B1883E998E00197F1F782EE96E06B
:10461000E1EAF6E020E221938E179F07E1F710927E
:10462000E106E2EEF6E083E097E020E221938E17C8
:104630009F07E1F710920207E3E0F7E08CE097E0D4
:1046400020E221938E179F07E1F710920B0710923B
:104650002507109224071092320710922307109218
:104660002207109221071092200761E070E081E09C
:1046700095E10E94071B8AE08C9FF0018D9FF00D51
:104680001124E65FFE4FE185E0934D058E2FEE0F7E
:10469000990BFC01EE0FFF1FE80FF91FE05CFD4FC7
:1046A000608170E082E091E10E94071B64E670E0A7
:1046B00080E090E00E9448168091FA019091FB0101
:1046C0002AE0289FF001299FF00D1124E65FFE4F9C
:1046D0008581968190936A0580936905878190858D
:1046E00090930901809308010E940822DF91CF91E5
:1046F0001F910F91FF90EF90DF90CF90BF90AF9000
:104700009F900C94CD199D7F9093490710924C0770
:1047100010924D07B9CE8701E4CE2D7F937C909304
:104720004907213009F0BEC0803409F4B3C01092AB
:104730004C07CA010E94E91BC090FA01D090FB010E
:104740008AE08C9DF0018D9DF00D1124E65FFE4FF7
:10475000A781B085AA0FBB1FAC5CBD4FAC90119672
:10476000BC90C581D681E380F48001811281809163
:104770006305882309F4A7C0909064051093360759
:1047800000933507F0923807E0923707A0923B0775
:10479000B0923C07C017D10708F493C0EC16FD0691
:1047A00008F48FC090917C0720913F078091790792
:1047B0003091400730FB87F98F7920FB84F9807FA7
:1047C00081608093790790937A0780E4809334071F
:1047D00080914907807C81608093490710924C0743
:1047E00081E080934D070E94451C80917B070E94C9
:1047F0003B1B90927D0782E080933D07D0933A0760
:10480000C0933907CE010E94E91B8091780780612F
:10481000809378070E94471B70E060E082E093E39A
:104820000E94071B8AE08C9DF0018D9DF00D1124E4
:10483000E65FFE4FE185E09307018E2FEE0F990BA7
:10484000FC01EE0FFF1FE80FF91FEC59FD4F90819F
:104850009F7080917707807F892B809377070E94D4
:10486000471B80916D0590916E050E949B1CB801BD
:1048700080E094E30E94071BB70181E094E30E946B
:10488000071BB5016B30710514F06AE070E082E03F
:1048900094E30ACF9D7F9093490710924C071092A2
:1048A0004D0747CF803421F081E080934C0741CF02
:1048B0009D7F9093490710924C0781E080934D07AC
:1048C00038CFE8016FCF83E08093640510933607FB
:1048D00000933507F0923807E0923707A0923B0724
:1048E000B0923C07C017D10708F478C0EC16FD065B
:1048F00008F474C080913D078130E1F10E94721B81
:1049000090917C0720913F07809179073091400773
:1049100030FB87F98F7920FB84F9807F8160809359
:10492000790790937A0780E4809334078091490750
:10493000807C81608093490710924C0781E08093CE
:104940004D070E94451C80913E0793EF980F60EC45
:104950007FE3943B38F424E531E0829FB001839FEC
:10496000700D112483E091E30E94071B80917B0767
:104970000E943B1B10927D0781E080933D07D093FE
:104980003A07C0933907CE010E94E91B60914A059E
:1049900080914B050E94C01B6091050170E082E090
:1049A00093E30E94071B8AE08C9DF0018D9DF00D22
:1049B0001124E65FFE4FE185E09306018E2FEE0F96
:1049C000990BFC01EE0FFF1FE80FF91FE15BFD4F94
:1049D00080810E948E1B10926F0549CFE8018ACF1B
:1049E000EF92FF920F931F93CF93DF93EC017B0124
:1049F000198218821B821A821D821C82FB0101907F
:104A00000020E9F731978F01061B170BB8016F5F84
:104A10007F4F90E080E00E948C370097B9F0998337
:104A200088831B830A832C813D81232B11F4FC0195
:104A300010821D830C83B70188819981DF91CF910A
:104A40001F910F91FF90EF900C94523888819981BB
:104A5000009711F00E940337198218821D821C8270
:104A60001B821A82DF91CF911F910F91FF90EF90DF
:104A7000089585ED8093BC008091C6059091C7058F
:104A8000A091C805B091C9050796A11DB11D23E0ED
:104A9000B695A795979587952A95D1F72091BC0053
:104AA00024FD03C01092C40508954091C60550919D
:104AB000C7056091C8057091C905452B462B472B4A
:104AC00069F30097A105B10541F025E32A95F1F7B7
:104AD00000000197A109B109E1CF8091C5050C94AF
:104AE0001A181F93CF93DF93EC01162F0E94C43442
:104AF000181739F0612FCE01DF91CF911F910C94DF
:104B0000CC34DF91CF911F9108950C94C4341F923F
:104B10000F920FB60F9211242F933F934F935F93F1
:104B20006F937F938F939F93AF93BF93EF93FF9375
:104B300080EF95E00E94C614FF91EF91BF91AF9175
:104B40009F918F917F916F915F914F913F912F91A5
:104B50000F900FBE0F901F9018951F920F920FB6D7
:104B60000F9211242F938F939F93EF93FF93E091D4
:104B70000006F09101068081E0910606F09107069B
:104B800082FD1BC09081809109068F5F8F732091F9
:104B90000A06821741F0E0910906F0E0E051FA4F71
:104BA000958F80930906FF91EF919F918F912F919F
:104BB0000F900FBE0F901F9018958081F4CF1F9219
:104BC0000F920FB60F9211242F933F938F939F93C1
:104BD000AF93BF938091400590914105A09142050C
:104BE000B091430530913F0523E0230F2D3758F551
:104BF0000196A11DB11D20933F0580934005909320
:104C00004105A0934205B0934305809144059091DE
:104C10004505A0914605B09147050196A11DB11D1E
:104C20008093440590934505A0934605B0934705AE
:104C3000BF91AF919F918F913F912F910F900FBE98
:104C40000F901F90189526E8230F0296A11DB11D05
:104C5000D2CF1F920F920FB60F9211242F933F9332
:104C60004F935F936F937F938F939F93AF93BF9374
:104C7000EF93FF93E0910201F09103010995FF91F9
:104C8000EF91BF91AF919F918F917F916F915F91C4
:104C90004F913F912F910F900FBE0F901F9018953D
:104CA0001F920F920FB60F9211242F933F934F93A1
:104CB0005F936F937F938F939F93AF93BF93EF9384
:104CC000FF93E0910001F09101010995FF91EF91AF
:104CD000BF91AF919F918F917F916F915F914F9114
:104CE0003F912F910F900FBE0F901F9018951F921C
:104CF0000F920FB60F9211242F933F934F935F9310
:104D00006F937F938F939F93AF93BF93EF93FF9393
:104D10008091B900887F803609F44AC0F0F5883266
:104D200009F4A7C018F5803109F49BC0B8F48823B2
:104D300009F4F9C0883009F494C0FF91EF91BF9154
:104D4000AF919F918F917F916F915F914F913F9123
:104D50002F910F900FBE0F901F901895883109F476
:104D600088C0803251F78093C20514C0803409F4A2
:104D70009DC040F48033B9F38833F9F68093C205BF
:104D800085ECB0C0803509F485C0883509F496C03B
:104D9000883499F60E943925D0CF883909F48CC01F
:104DA00038F5883729F050F4883611F0803729F625
:104DB00083E08093C40510923D0557C0883809F4FC
:104DC0007BC0803919F0803809F0B7CF80913D055C
:104DD000803208F071C0E0913D0581E08E0F809334
:104DE0003D058091BB00F0E0E35EFA4F80833DC05B
:104DF000803B39F0E0F4803A09F479C0883A09F050
:104E00009CCF84E08093C40510921C0510921B0572
:104E1000E0919A05F0919B05099580911B05811100
:104E20000FC081E080931B051092FB0409C0803CF9
:104E300009F4A6CF883C09F4A3CF883B09F07DCFC5
:104E4000E0911C0581E08E0F80931C05F0E0E55099
:104E5000FB4F80818093BB0090911C0580911B05C6
:104E600029C080919F058093BB0085EC8093BC0096
:104E700064CF9091C1058091C005981758F5E091D5
:104E8000C10581E08E0F8093C105F0E0E056FA4F36
:104E90008081E9CFE091C10581E08E0F8093C1054B
:104EA0008091BB00F0E0E056FA4F80839091C105FD
:104EB0008091C0059817C8F285E8D8CFE091C10568
:104EC00081E08E0F8093C1058091BB00F0E0E05639
:104ED000FA4F80838091C30581115CCF81E080937C
:104EE0009E0584EA8093BC001092C40526CF85EC11
:104EF0008093BC001092C40580913D05803230F44F
:104F0000E0913D05F0E0E35EFA4F108260913D05CF
:104F100070E0E0919805F09199058DE195E0099593
:104F200010923D050ACF1092C20534CF1F93CF9344
:104F3000DF93E0EFF5E01382128288EE93E0A0E0C9
:104F4000B0E084839583A683B7832AE732E0318378
:104F5000208325EC30E03587248724EC30E0378748
:104F6000268720EC30E0318B208B21EC30E0338B36
:104F7000228B22EC30E0358B248B26EC30E0378B13
:104F8000268B118E128E138E148EEDE8F6E01382AE
:104F9000128284839583A683B7838CE892E0918301
:104FA0008083E2E1F8E0138212828EE992E091833D
:104FB000808389E09AE19093A00680939F0685E024
:104FC00094E190939E0680939D068AEA99E19093DE
:104FD0009C0680939B0682E299E190939A068093C7
:104FE00099060E949F1660930E0870930F08809395
:104FF0001008909311080E949F1660930A087093FE
:105000000B0880930C0890930D080E949F166093E4
:1050100006087093070880930808909309080E9477
:105020009F1660930208709303088093040890937E
:105030000508C2E8D7E08DE08883198267E273E053
:1050400084E897E00E94F02487E188878CE08987D4
:105050006DE273E08CE897E00E94F02481E2888B97
:1050600086E1898B63E373E084E997E00E94F02492
:105070008BE2888F10E2198F69E373E08CE997E087
:105080000E94F02485E388A38AE289A36FE373E09A
:1050900084EA97E00E94F0248FE388A784E389A73D
:1050A00065E473E08CEA97E00E94F02489E488AB21
:1050B0008EE389AB6BE473E084EB97E00E94F0240D
:1050C0008FE488AF88E489AF6EE473E08CEB97E0FF
:1050D0000E94F02485E58093C2078EE48093C30785
:1050E00061E573E084EC97E00E94F0248BE5809307
:1050F000CA0784E58093CB0764E573E08CEC97E006
:105100000E94F02481E68093D2078AE58093D3073A
:1051100067E573E084ED97E00E94F02487E68093D2
:10512000DA0780E68093DB076AE573E08CED97E0B1
:105130000E94F0248DE68093E20786E68093E307E1
:105140006DE573E084EE97E00E94F02483E780939E
:10515000EA078CE68093EB0760E673E08CEE97E05D
:105160000E94F02489E78093F20782E78093F30797
:1051700063E673E084EF97E00E94F02480E8809378
:10518000FA0788E78093FB0766E673E08CEF97E009
:105190000E94F024CFE7D7E082E0898383E08A830E
:1051A00060E082E00E94D51560E08A810E94D515FA
:1051B00061E089810E94A71561E08A810E94A7159C
:1051C0001882109226071092270781E190E09093B1
:1051D0002907809328078EE190E090932B07809316
:1051E0002A078AE090E090932D0780932C0780E4B3
:1051F0009FE1A0E0B0E080932E0790932F07A0934B
:105200003007B09331078FEF80933D0790E3909381
:105210003E0791E090933F0710924007109241079C
:1052200028E13CE7309343072093420721E030E038
:1052300030934507209344071092460710937B074D
:1052400095E090937C0780937E0710927D07DF9115
:10525000CF911F910C949F16789484B5826084BD81
:1052600084B5816084BD85B5826085BD85B581606A
:1052700085BD80916E00816080936E0010928100E8
:1052800080918100826080938100809181008160A3
:105290008093810080918000816080938000809164
:1052A000B10084608093B1008091B00081608093F0
:1052B000B00080917A00846080937A0080917A00B7
:1052C000826080937A0080917A00816080937A0076
:1052D00080917A00806880937A001092C100E091FA
:1052E0000006F091010682E08083E091FC05F091D8
:1052F000FD051082E091FE05F091FF058FEC8083A3
:1053000010920806E0910406F091050686E080837D
:10531000E0910206F0910306808180618083E09134
:105320000206F0910306808188608083E091020686
:10533000F0910306808180688083E0910206F091FD
:10534000030680818F7D80838EE00E9411160E946B
:10535000FC208FE00E9411160E94FC2080E10E9438
:1053600011160E94FC2081E10E9411160E94FC206F
:1053700082E10E9411160E94FC2083E10E94111616
:105380000E94FC2084E10E9411160E94FC2085E10D
:105390000E9411160E94FC2069E673E080EF95E000
:1053A0000E94281D62E082E00E94D51562E083E041
:1053B0000E94D51562E085E00E94D51562E088E084
:1053C0000E94D51562E089E00E94D51562E086E072
:1053D0000E94D51562E087E00E94D51562E08EE05C
:1053E0000E94D51562E08BE00E94D51562E08AE04C
:1053F0000E94D51562E084E00E94D5156AE773E04B
:1054000080EF95E00E94281DE0919F06F091A00694
:1054100009950E94D316C1E9D7E229E9C22E27E2F5
:10542000D22EFE011491812F0E94B116811107C066
:105430000E94AC160E94D316812F0E94B1162196AD
:10544000CC16DD0671F70E94AC160E94F6168FEAA4
:105450000E94B3178EE292E090934905809348052D
:105460006BE873E080EF95E00E94281D60E088E221
:105470000E94D8166FE973E082E198E00E94BB1D9C
:1054800061E084E10E94D81666EA73E082E198E068
:105490000E94BB1D64EF71E080E090E00E9448161E
:1054A00062E08AE00E94D81666EB73E082E198E041
:1054B0000E94BB1D64EF71E080E090E00E944816FE
:1054C00063E08AE00E94D81668EC73E082E198E01D
:1054D0000E94BB1D0E949F166093020870930308F0
:1054E000809304089093050860ED77E080E090E0F9
:1054F0000E9448166AED73E080EF95E00E94281D37
:105500008EE00E947E15892BF9F462EF73E080EF44
:1055100095E00E94281D0E94F61660E090E080E071
:105520000E94CC3460E080E00E94D8166BE074E00A
:1055300082E198E00E94BB1D60ED77E080E090E0A2
:105540000E9448160E94F6160E949F166093020859
:105550007093030880930408909305086AE174E04F
:1055600080EF95E00E94281D2CED39E13093010178
:1055700020930001809169008C7F81608093690095
:10558000E89A309303012093020180916900837FA0
:10559000846080936900E99A68E274E080EF95E0A6
:1055A0000E94281D64EF71E080E090E00E944816A0
:1055B0008CE0809333070E947B160E94031881E1E0
:1055C0000E94F9130E943B1881113EC281E190E0D4
:1055D00090932907809328070E94FC2064EF71E0D4
:1055E00080E090E00E9448166AE374E080EF95E066
:1055F0000E94281D0E947B1664EF71E080E090E01D
:105600000E9448166DE474E080EF95E00E94281D2A
:105610000E9403188CE08093330710924007109289
:10562000410785E080937C0791E19093790780930F
:105630007A0791E090933F0780E48093340780914C
:105640004907807C81608093490710924C079093B2
:105650004D0780917E0787FD07C061E00E94A71576
:105660008BEA94E00197F1F70E947B160E94451C9B
:105670008EE10E943B1B0E94EF1A809128070E9436
:10568000F91380E190E00E94B5190E943B180E9436
:10569000EF1A69E070E080912807909129070E9435
:1056A000191ACEE5D7E08DE896E00E943419899367
:1056B000F7E0C736DF07B9F780915E0786FDE7CFD1
:1056C0006AEF70E080E090E00E94481664EF71E0BD
:1056D00080E090E00E94481660E674E080EF95E07C
:1056E0000E94281D90E080E00E9485258B3209F001
:1056F000AFC066E774E080EF95E00E94281D81E06E
:1057000090E00E9485258093040182E090E00E9451
:105710008525C82ED12CD092FB01C092FA0183E0DE
:1057200090E00E948525782E8093640584E090E0C7
:105730000E948525C82FD0E0DC2FCC27D0936E05A2
:10574000C0936D0585E090E00E948525C82BD0931D
:105750006E05C0936D050AE011E0C6E0D0E05E0181
:10576000CE010E948525882E912C982C8824F80142
:1057700096828582CE0101960E948525882AF801AD
:1057800096828582CE0102960E94852590E0F801DE
:10579000908787832496C50103960E948525F8018A
:1057A0008187065F1F4FC636D105C9F68AE08C9DFA
:1057B000F0018D9DF00D1124E65FFE4F85819681ED
:1057C00090936A058093690590936C0580936B05AF
:1057D000A781B085AA0FBB1FAC5CBD4F8D919C917A
:1057E0009093090180930801C185EC2F0C2E000CC9
:1057F000FF0B8FEF870D823008F035C10E941C1E11
:105800008C2FC6300CF085E080930701082E000C29
:10581000990BFC01EE0FFF1FE80FF91FEC59FD4F2C
:10582000C0819C2F9F7080917707807F892B809308
:1058300077070E94471B809177078F70CC2321F058
:10584000C450C23008F00DC1809377070E94471BF7
:105850000E9416220E941C1D90936C0580936B057C
:1058600090936A0580936905809104010E943B1B17
:105870000E94F6160E940822E3E06E2EE7E07E2EDC
:1058800074E7C72E77E0D72E63E9A62E68E0B62E20
:105890008091760590917705892B09F444C08FEAB1
:1058A0000E94B3170E949F1660930208709303082A
:1058B000809304089093050880917505882309F466
:1058C000F4C0209176053091770580917B072130D7
:1058D00009F0E6C08F3318F48F5F80937B078091C7
:1058E0007B070E943B1B0E94EE1D64E670E080E097
:1058F00090E00E94481610927705109276050E945B
:10590000CD190E949F1660930A0870930B0880932C
:105910000C0890930D081092650510926605109280
:105920006705109268050E949F1600910608109165
:1059300007082091080830910908601B710B820B41
:10594000930B653671058105910578F185E00E941C
:105950007E15892B09F0D7C28FEA0E94B3170E94E7
:105960009F16609302087093030880930408909335
:1059700005086091710581E068276093710542E632
:105980005FE181E795E00E943B2064E670E080E003
:1059900090E00E9448160E949F166093060870933C
:1059A000070880930808909309080E949F160091A9
:1059B0000A0810910B0820910C0830910D08601B0B
:1059C000710B820B930B673475408105910508F4C8
:1059D0005CC580913407C8E0D0E013E2803241F02A
:1059E000C8E0D0E013E5803519F0C6E0D0E013E45C
:1059F0000E94EF1A809128070E94F913612F8DE809
:105A000096E00E947B1960E08DE896E00E947B1989
:105A10000E943B180E94EF1ABE01809128079091C6
:105A200029070E94191A912C092D10E00C171D0747
:105A30000CF0EEC48DE896E00E943419F801E25BA8
:105A4000F84F80839394F0CF83E60E94F9130E946D
:105A50003B18811103C083E690E0BACD90E080E06E
:105A6000BBCD8061F1CECF01880F991F23E0721268
:105A70000AC0C0930601E80FF91FE15BFD4F80816A
:105A80000E948E1BE5CEC0934D05E80FF91FE05C28
:105A9000FD4F608170E082E091E10E94071BD8CE4B
:105AA000882309F41CCF815018CF2091740521114F
:105AB00005C080917305882309F449C0809176055B
:105AC00090917705982F222341F180914C059130D8
:105AD000D1F48F5F87FF19C085E280934C059091C8
